:100000000C942A000C94E0060C9447000C944700D2
:100010000C9447000C94BA070C9447000C944700CA
:100020000C9447000C9447000C9447000C942D0747
:100030000C9447000C9447000C9447000C94470024
:100040000C9447000C9447000C9447000C94470014
:100050000C94470011241FBECFE5D8E0DEBFCDBF12
:1000600011E0A0E6B0E0ECE2F1E102C005900D92F3
:10007000A431B107D9F721E0A4E1B1E001C01D929C
:10008000A333B207E1F70E94E0010C9494080C94AA
:1000900000000E94BC0208950E94B90261E083E062
:1000A0000E946F0262E084E00E946F0208950E9445
:1000B000B90262E083E00E946F0261E084E00E9486
:1000C0006F0208950E94B90262E083E00E946F020D
:1000D00062E084E00E946F0208950E94B90261E02C
:1000E00083E00E946F0261E084E00E946F02089545
:1000F0000E94B90262E084E00E946F0283E00E94E5
:10010000A20208950E94B90261E083E00E946F029A
:1001100084E00E94A202089583E00E94A20284E08B
:100120000E94A202089580E00E94DB0408958AE5FF
:100130000E94DB04089584EB0E94DB040895CF92B3
:10014000DF92EF92FF926AE081E00E94BD040E947C
:10015000550320EA33E040E050E00E943008690196
:100160007A01CA01B901882799270E94360483E6DB
:1001700090E00E942004C601FF90EF90DF90CF90A6
:100180000895CF930E949B002FEF39E688E121501C
:1001900030408040E1F700C000000E949F00C82F5F
:1001A0009FEF23EC39E0915020403040E1F700C050
:1001B00000000E9493008FEF99E628E18150904063
:1001C0002040E1F700C000000E949F003FEF93EC49
:1001D00029E0315090402040E1F700C00000C83CC9
:1001E00010F0883C58F4909162009C1710F098171A
:1001F00038F491E0C81728F090E003C091E001C006
:1002000092E0892FCF910895673409F445C028F40E
:100210006234B1F0663449F04AC06C34E1F06235C2
:1002200029F1693409F043C02CC00E944C0060E001
:1002300081E00E94BD0487E690E00E9420040895BA
:100240000E94570060E081E00E94BD0488E790E0D2
:100250000E94200408950E946D0060E081E00E94E9
:10026000BD0489E890E00E94200408950E94620085
:1002700060E081E00E94BD048AE990E00E942004D1
:1002800008950E94780060E081E00E94BD048BEA3E
:1002900090E00E94200408950E94820060E081E0C6
:1002A0000E94BD048CEB90E00E94200408950E94FF
:1002B0008C0060E081E00E94BD048DEC90E00E9423
:1002C000200408950E9497002FEF8DE292E22150C2
:1002D00080409040E1F700C000000E949F00909392
:1002E0002501809324012091620030E0821793075A
:1002F000E0F0809161000E944C000DC00E949F00C0
:10030000909325018093240184E10E94010680934B
:100310002801813051F08091620090E02091240109
:10032000309125012817390748F70E948C000E9458
:10033000C100809327018130B1F018F0823029F19B
:1003400035C0809160000E946D002FEF8EEF94E128
:10035000215080409040E1F700C000000E948C00D6
:100360000E94970023C0809160000E9462002FEFDE
:100370008EEF94E1215080409040E1F700C00000F2
:100380000E948C000E94970011C0809160000E9422
:1003900062002FEF81E59CE1215080409040E1F721
:1003A00000C000000E948C000E9497002FEF80E7A1
:1003B00092E0215080409040E1F700C00000089595
:1003C0000E945C020E94E4030E941C030E94D2046B
:1003D0000E94EC040E94B9040E9449000E940D088A
:1003E00062E084E10E94EF0484E10E9401068093B0
:1003F000280160E081E00E94BD046091280170E066
:1004000080E090E00E94360460E080E00E94BD043D
:100410008FED90E00E9420040E941808809326012E
:1004200090ED980F9A30B8F4880F8056982F990F56
:10043000990F890F8093230168E081E00E94BD0439
:1004400080EF90E00E9420046091230170E080E042
:1004500090E00E94360460912601809123010E9461
:10046000040184E10E940106809328018111CCCF10
:100470000E94B90460E080E00E94BD0487EF90E034
:100480000E94200460E081E00E94BD0488E091E0C9
:100490000E9420046BE081E00E94BD04809126014F
:1004A0000E9466030E94620184E10E94010680931B
:1004B00028018130F9F698CF61E08FE10E94EF04C6
:1004C00061E080E20E94EF0461E081E20E94EF04BB
:1004D00061E082E20E94EF040E94A0070895833049
:1004E00019F08430C1F00895613019F0623051F094
:1004F000089561E08FE10E94780562E080E20E9449
:100500007805089562E08FE10E94780561E080E25D
:100510000E9478050895613019F0623051F0089515
:1005200061E081E20E94780562E082E20E94780543
:10053000089562E081E20E94780561E082E20E9413
:1005400078050895833019F0843051F0089562E001
:100550008FE10E94780562E080E20E9478050895AC
:1005600062E081E20E94780562E082E20E94780502
:1005700008950E94AE0708950E94B70708958091DC
:10058000150190911601A0911701B09118010196E3
:10059000A11DB11D8093150190931601A093170121
:1005A000B09318018B3A9540A105B10568F012BED1
:1005B0001092190110921401109215011092160157
:1005C000109217011092180108958091190181303D
:1005D00091F580911401811106C00E94140781E0F9
:1005E00080931401089522B780911501909116010E
:1005F000A0911701B0911801BA2FA92F982F882721
:10060000820F911DA11DB11D8093290190932A0194
:10061000A0932B01B0932C010E941E07109215018C
:1006200010921601109217011092180110921401E5
:1006300012BE10921901089561E08BE20E94EF044E
:1006400062E08AE20E94EF0462E08AE20E944506CC
:100650000E94CE060E94070785EE92E00E94DB060C
:100660008FEB92E00E942807089580911901811173
:100670001BC062E08BE20E9478058AE18A95F1F75F
:1006800000C061E08BE20E94780585E38A95F1F76E
:10069000000062E08BE20E94780585E38A95F1F71D
:1006A000000081E08093190108950E9435038FE1D5
:1006B0009EE40197F1F700C000006091290170915C
:1006C0002A0180912B0190912C010895CF93C82F7E
:1006D00061E085E10E9478058BB39C2F907F8F703D
:1006E000892B8BBB61E087E10E9478058FE99FE051
:1006F0000197F1F700C0000062E087E10E947805F1
:100700008FE19EE40197F1F700C000002BB330E1C8
:10071000C39FC0011124922F9F70892B8BBB61E076
:1007200087E10E9478058FE99FE00197F1F700C00B
:10073000000062E087E10E9478058FE19EE4019766
:10074000F1F700C00000CF910895CF93C82F62E069
:1007500085E10E9478058BB39C2F907F8F70892B49
:100760008BBB61E087E10E9478058FE99FE00197EC
:10077000F1F700C0000062E087E10E9478058FE990
:100780009FE00197F1F700C000002BB330E1C39F59
:10079000C0011124922F9F70892B8BBB61E087E1F0
:1007A0000E9478058FE99FE00197F1F700C00000F3
:1007B00062E087E10E9478058FE19EE40197F1F7FE
:1007C00000C00000CF91089561E08EE00E94EF0428
:1007D00061E08FE00E94EF0461E080E10E94EF049D
:1007E00061E081E10E94EF0461E085E10E94EF0495
:1007F00061E086E10E94EF0461E087E10E94EF047E
:1008000062E086E10E9478052FEF83ED90E32150AE
:1008100080409040E1F700C0000083E30E94A50300
:1008200082E30E94A50388E20E94A5038CE00E9457
:10083000A50381E00E94A50382E00E94A50308951C
:100840000F931F93CF93FC018081882359F08F0170
:10085000C0E00E946603CF5FF801EC0FF11D8081BC
:100860008111F7CFCF911F910F9108954F925F9211
:100870006F927F92AF92BF92CF92DF92EF92FF92F0
:100880001F93CF93DF93CDB7DEB72A970FB6F894B7
:10089000DEBF0FBECDBF6B017C01FE0131968AE049
:1008A000DF011D928A95E9F7C114D104E104F10436
:1008B00021F480E30E94660348C0FF2084F48DE2A7
:1008C0000E946603F094E094D094C094C11CD11CA3
:1008D000E11CF11CC114D104E104F104B1F110E0F8
:1008E0000F2EFAE04F2E512C612C712CF02D01C0EF
:1008F000182FAA24A394B12CAC0EBD1EA10EB11CBE
:1009000017FDBA94C701B601A30192010E945208D3
:10091000F501608381E0810FC22ED32EE42EF52EE7
:10092000C114D104E104F10419F7112374F0E1E0DA
:10093000F0E0EC0FFD1FE10FF11D17FDFA9580812E
:10094000805D0E946603115092F72A960FB6F894C4
:10095000DEBF0FBECDBFDF91CF911F91FF90EF9013
:10096000DF90CF90BF90AF907F906F905F904F904F
:10097000089581E00E94A5030895CF93DF9300D0EE
:10098000CDB7DEB790E8998390EC9A83FE01E80F2B
:10099000F11D8181860F0E94A5030F900F90DF91BA
:1009A000CF9108950E94540762E370E080E090E0E8
:1009B0000E946807089590E09C01220F331F220FC8
:1009C000331F820F931F64EB70E00E941C0885E0C8
:1009D000860F0E94750708950E948C0708959DEC6C
:1009E000899F912D1124292F269526952695220F32
:1009F000322F330F330F230F821B282F9695969596
:100A00009695613019F06230C1F108959230A1F0ED
:100A100018F4913031F008959330C9F0943011F109
:100A200008953AB381E090E002C0880F991F2A959B
:100A3000E2F7832B8ABB089537B381E090E002C0D0
:100A4000880F991F2A95E2F7832B87BB089534B34B
:100A500081E090E002C0880F991F2A95E2F7832B6E
:100A600084BB089531B381E090E002C0880F991FE4
:100A70002A95E2F7832B81BB08959230A9F018F4F0
:100A8000913031F008959330D9F0943029F10895E0
:100A90003AB381E090E002C0880F991F2A95E2F7EF
:100AA000809583238ABB089537B381E090E002C02C
:100AB000880F991F2A95E2F78095832387BB0895B5
:100AC00034B381E090E002C0880F991F2A95E2F7C5
:100AD0008095832384BB089531B381E090E002C008
:100AE000880F991F2A95E2F78095832381BB08958B
:100AF0009DEC899F912D1124292F269526952695C9
:100B0000220F322F330F330F230F821B282F96957E
:100B100096959695613019F06230C1F10895923042
:100B2000A1F018F4913031F008959330C9F0943069
:100B300011F108953BB381E090E002C0880F991F46
:100B40002A95E2F7832B8BBB089538B381E090E0C0
:100B500002C0880F991F2A95E2F7832B88BB08955E
:100B600035B381E090E002C0880F991F2A95E2F723
:100B7000832B85BB089532B381E090E002C0880FDB
:100B8000991F2A95E2F7832B82BB08959230A9F032
:100B900018F4913031F008959330D9F0943029F160
:100BA00008953BB381E090E002C0880F991F2A9519
:100BB000E2F7809583238BBB089538B381E090E002
:100BC00002C0880F991F2A95E2F78095832388BB7E
:100BD000089535B381E090E002C0880F991F2A95EF
:100BE000E2F78095832385BB089532B381E090E0DE
:100BF00002C0880F991F2A95E2F78095832382BB54
:100C000008959DEC899F912D1124292F26952695D5
:100C10002695220F322F330F330F230F821B282FDD
:100C2000892F869586958695823091F018F48130CB
:100C300031F029C08330A9F08430E1F024C089B3B9
:100C400090E002C0959587952A95E2F78170089506
:100C500086B390E002C0959587952A95E2F781705A
:100C6000089583B390E002C0959587952A95E2F7A1
:100C70008170089580B390E002C0959587952A957C
:100C8000E2F78170089580E008959DEC899F912D91
:100C90001124292F269526952695220F322F330FC2
:100CA000330F230F821B282F9695969596956130CA
:100CB00019F06230C1F108959230A1F018F491302A
:100CC00031F008959330C9F0943011F108953BB399
:100CD00081E090E002C0880F991F2A95E2F7832BEC
:100CE0008BBB089538B381E090E002C0880F991F54
:100CF0002A95E2F7832B88BB089535B381E090E015
:100D000002C0880F991F2A95E2F7832B85BB0895AF
:100D100032B381E090E002C0880F991F2A95E2F774
:100D2000832B82BB08959230A9F018F4913031F0F2
:100D300008959330D9F0943029F108953BB381E0C0
:100D400090E002C0880F991F2A95E2F780958323CF
:100D50008BBB089538B381E090E002C0880F991FE3
:100D60002A95E2F78095832388BB089535B381E007
:100D700090E002C0880F991F2A95E2F7809583239F
:100D800085BB089532B381E090E002C0880F991FBF
:100D90002A95E2F78095832382BB089585B7816009
:100DA00085BF85B78D7F85BF8BB780648BBF8FB7BD
:100DB00080688FBF089590932E0180932D01089530
:100DC0001F920F920FB60F9211242F933F934F93C0
:100DD0005F936F937F938F939F93AF93BF93EF93A3
:100DE000FF93E0912D01F0912E010995FF91EF9174
:100DF000BF91AF919F918F917F916F915F914F9133
:100E00003F912F910F900FBE0F901F90189583B7B1
:100E1000877F83BF83B78F7B83BF89B7816089BF9B
:100E20008FB780688FBF089583B7816083BF83B712
:100E30008D7F83BF83B78B7F83BF089583B78E7FFA
:100E400083BF83B78D7F83BF83B78B7F83BF0895B5
:100E50009093300180932F0108951F920F920FB647
:100E60000F9211242F933F934F935F936F937F9330
:100E70008F939F93AF93BF93EF93FF93E0912F01D5
:100E8000F09130010995FF91EF91BF91AF919F9142
:100E90008F917F916F915F914F913F912F910F9023
:100EA0000FBE0F901F9018958D9A8FB58E7F8FBDB6
:100EB0008FB582608FBD8EB588608EBD8EB5806126
:100EC0008EBD8FB58F7B8FBD8FB580688FBD089528
:100ED0009B01AC0160E970ED83E090E00E94300876
:100EE0002150310937BD26BD089546B557B5282F85
:100EF000249FC001259F900D11249C0136952795B4
:100F000036952795ABE7B4E10E94710896958795D1
:100F100002969BBD8ABD08958EB581608EBD8EB54B
:100F200082608EBD8EB58B7F8EBD089585B5816044
:100F300085BD85B5826085BD85B5846085BD089514
:100F40008F9A85B5886085BD85B5806485BD85B57A
:100F50008F7E85BD85B5806285BD0895982F80E020
:100F600064E670E00E941C08615063BD08950E9411
:100F7000960708951F920F920FB60F9211242F9388
:100F80003F934F935F936F937F938F939F93AF9311
:100F9000BF93EF93FF9380911A0190911B01A09151
:100FA0001C01B0911D010196A11DB11D80931A0174
:100FB00090931B01A0931C01B0931D0140911F0150
:100FC00050912001609121017091220184179507B1
:100FD000A607B70789F4E0913101F0913201099534
:100FE00010921A0110921B0110921C0110921D0107
:100FF00080911E01819584BDFF91EF91BF91AF91CA
:101000009F918F917F916F915F914F913F912F9120
:101010000F900FBE0F901F9018958898899A52983C
:1010200086E880BD87E689B910BC549A539A089522
:101030005F9BFECF8CB1089597FB072E16F40094AA
:1010400007D077FD09D00E94800807FC05D03EF448
:10105000909581959F4F0895709561957F4F089564
:10106000A1E21A2EAA1BBB1BFD010DC0AA1FBB1FAC
:10107000EE1FFF1FA217B307E407F50720F0A21B1E
:10108000B30BE40BF50B661F771F881F991F1A948B
:1010900069F760957095809590959B01AC01BD01B5
:1010A000CF010895052E97FB1EF400940E94690855
:1010B00057FD07D00E94300807FC03D04EF40C9473
:1010C000690850954095309521953F4F4F4F5F4FA0
:1010D000089590958095709561957F4F8F4F9F4FA4
:1010E0000895A29FB001B39FC001A39F700D811D01
:1010F0001124911DB29F700D811D1124911D089521
:10110000AA1BBB1B51E107C0AA1FBB1FA617B7072D
:1011100010F0A61BB70B881F991F5A95A9F7809549
:0C1120009095BC01CD010895F894FFCF1C
:10112C0032283220636D00466F7277617264202022
:10113C0020202020202020004261636B77617264A4
:10114C00202020202020202000526F756E64204C1F
:10115C0065667420202020202000526F756E64205C
:10116C0052696768742020202020005475726E69C3
:10117C006E67205269676874202020005475726E67
:10118C00696E67204C65667420202020002020208A
:10119C0020202053746F702020202020202000203D
:1011AC00202020204D616E75616C202020202000B5
:1011BC0073706565643A002020204175746F6E6F02
:1011CC006D6F75732020200044697374616E6365C4
:0411DC003D200000B2
:00000001FF
